{
  "_format": "hh-sol-artifact-1",
  "contractName": "MockUSDC",
  "sourceName": "contracts/MockUSDC.sol",
  "abi": [
    {
      "inputs": [],
      "stateMutability": "nonpayable",
      "type": "constructor"
    },
    {
      "anonymous": false,
      "inputs": [
        {
          "indexed": true,
          "internalType": "address",
          "name": "owner",
          "type": "address"
        },
        {
          "indexed": true,
          "internalType": "address",
          "name": "spender",
          "type": "address"
        },
        {
          "indexed": false,
          "internalType": "uint256",
          "name": "value",
          "type": "uint256"
        }
      ],
      "name": "Approval",
      "type": "event"
    },
    {
      "anonymous": false,
      "inputs": [
        {
          "indexed": true,
          "internalType": "address",
          "name": "user",
          "type": "address"
        },
        {
          "indexed": false,
          "internalType": "uint256",
          "name": "amount",
          "type": "uint256"
        }
      ],
      "name": "FaucetClaimed",
      "type": "event"
    },
    {
      "anonymous": false,
      "inputs": [
        {
          "indexed": true,
          "internalType": "address",
          "name": "from",
          "type": "address"
        },
        {
          "indexed": true,
          "internalType": "address",
          "name": "to",
          "type": "address"
        },
        {
          "indexed": false,
          "internalType": "uint256",
          "name": "value",
          "type": "uint256"
        }
      ],
      "name": "Transfer",
      "type": "event"
    },
    {
      "inputs": [],
      "name": "FAUCET_AMOUNT",
      "outputs": [
        {
          "internalType": "uint256",
          "name": "",
          "type": "uint256"
        }
      ],
      "stateMutability": "view",
      "type": "function"
    },
    {
      "inputs": [],
      "name": "FAUCET_COOLDOWN",
      "outputs": [
        {
          "internalType": "uint256",
          "name": "",
          "type": "uint256"
        }
      ],
      "stateMutability": "view",
      "type": "function"
    },
    {
      "inputs": [
        {
          "internalType": "address",
          "name": "owner",
          "type": "address"
        },
        {
          "internalType": "address",
          "name": "spender",
          "type": "address"
        }
      ],
      "name": "allowance",
      "outputs": [
        {
          "internalType": "uint256",
          "name": "",
          "type": "uint256"
        }
      ],
      "stateMutability": "view",
      "type": "function"
    },
    {
      "inputs": [
        {
          "internalType": "address",
          "name": "spender",
          "type": "address"
        },
        {
          "internalType": "uint256",
          "name": "value",
          "type": "uint256"
        }
      ],
      "name": "approve",
      "outputs": [
        {
          "internalType": "bool",
          "name": "",
          "type": "bool"
        }
      ],
      "stateMutability": "nonpayable",
      "type": "function"
    },
    {
      "inputs": [
        {
          "internalType": "address",
          "name": "account",
          "type": "address"
        }
      ],
      "name": "balanceOf",
      "outputs": [
        {
          "internalType": "uint256",
          "name": "",
          "type": "uint256"
        }
      ],
      "stateMutability": "view",
      "type": "function"
    },
    {
      "inputs": [],
      "name": "decimals",
      "outputs": [
        {
          "internalType": "uint8",
          "name": "",
          "type": "uint8"
        }
      ],
      "stateMutability": "view",
      "type": "function"
    },
    {
      "inputs": [],
      "name": "faucet",
      "outputs": [],
      "stateMutability": "nonpayable",
      "type": "function"
    },
    {
      "inputs": [
        {
          "internalType": "address",
          "name": "account",
          "type": "address"
        }
      ],
      "name": "faucetCooldownRemaining",
      "outputs": [
        {
          "internalType": "uint256",
          "name": "",
          "type": "uint256"
        }
      ],
      "stateMutability": "view",
      "type": "function"
    },
    {
      "inputs": [
        {
          "internalType": "address",
          "name": "",
          "type": "address"
        }
      ],
      "name": "lastFaucetClaim",
      "outputs": [
        {
          "internalType": "uint256",
          "name": "",
          "type": "uint256"
        }
      ],
      "stateMutability": "view",
      "type": "function"
    },
    {
      "inputs": [],
      "name": "name",
      "outputs": [
        {
          "internalType": "string",
          "name": "",
          "type": "string"
        }
      ],
      "stateMutability": "view",
      "type": "function"
    },
    {
      "inputs": [],
      "name": "symbol",
      "outputs": [
        {
          "internalType": "string",
          "name": "",
          "type": "string"
        }
      ],
      "stateMutability": "view",
      "type": "function"
    },
    {
      "inputs": [],
      "name": "totalSupply",
      "outputs": [
        {
          "internalType": "uint256",
          "name": "",
          "type": "uint256"
        }
      ],
      "stateMutability": "view",
      "type": "function"
    },
    {
      "inputs": [
        {
          "internalType": "address",
          "name": "to",
          "type": "address"
        },
        {
          "internalType": "uint256",
          "name": "value",
          "type": "uint256"
        }
      ],
      "name": "transfer",
      "outputs": [
        {
          "internalType": "bool",
          "name": "",
          "type": "bool"
        }
      ],
      "stateMutability": "nonpayable",
      "type": "function"
    },
    {
      "inputs": [
        {
          "internalType": "address",
          "name": "from",
          "type": "address"
        },
        {
          "internalType": "address",
          "name": "to",
          "type": "address"
        },
        {
          "internalType": "uint256",
          "name": "value",
          "type": "uint256"
        }
      ],
      "name": "transferFrom",
      "outputs": [
        {
          "internalType": "bool",
          "name": "",
          "type": "bool"
        }
      ],
      "stateMutability": "nonpayable",
      "type": "function"
    }
  ],
  "bytecode": "0x608060405234801561001057600080fd5b503360008181526001602090815260408083206509184e72a000908190558084559051818152909392917fddf252ad1be2c89b69c2b068fc378daa952ba7f163c4a11628f55a4df523b3ef910160405180910390a3506109f2806100756000396000f3fe608060405234801561001057600080fd5b50600436106100ea5760003560e01c80637d1d5d191161008c578063a9059cbb11610066578063a9059cbb14610210578063b44bae8e14610223578063dd62ed3e14610236578063de5f72fd1461026f57600080fd5b80637d1d5d19146101c35780638a877205146101cc57806395d89b41146101ec57600080fd5b806323b872dd116100c857806323b872dd14610162578063313ce5671461017557806370a082311461018f57806376697640146101b857600080fd5b806306fdde03146100ef578063095ea7b31461012d57806318160ddd14610150575b600080fd5b610117604051806040016040528060098152602001684d6f636b205553444360b81b81525081565b604051610124919061085b565b60405180910390f35b61014061013b3660046108c5565b610279565b6040519015158152602001610124565b6000545b604051908152602001610124565b6101406101703660046108ef565b61033c565b61017d600681565b60405160ff9091168152602001610124565b61015461019d36600461092b565b6001600160a01b031660009081526001602052604090205490565b610154633b9aca0081565b610154610e1081565b6101546101da36600461092b565b60036020526000908152604090205481565b610117604051806040016040528060058152602001646d5553444360d81b81525081565b61014061021e3660046108c5565b61059b565b61015461023136600461092b565b6106d2565b61015461024436600461094d565b6001600160a01b03918216600090815260026020908152604080832093909416825291909152205490565b61027761072e565b005b60006001600160a01b0383166102d65760405162461bcd60e51b815260206004820152601760248201527f417070726f766520746f207a65726f206164647265737300000000000000000060448201526064015b60405180910390fd5b3360008181526002602090815260408083206001600160a01b03881680855290835292819020869055518581529192917f8c5be1e5ebec7d5bd14f71427d1e84f3dd0314c0f7b2291e5b200ac8c7c3b92591015b60405180910390a35060015b92915050565b60006001600160a01b0384166103945760405162461bcd60e51b815260206004820152601a60248201527f5472616e736665722066726f6d207a65726f206164647265737300000000000060448201526064016102cd565b6001600160a01b0383166103e55760405162461bcd60e51b81526020600482015260186024820152775472616e7366657220746f207a65726f206164647265737360401b60448201526064016102cd565b6001600160a01b0384166000908152600160205260409020548211156104445760405162461bcd60e51b8152602060048201526014602482015273496e73756666696369656e742062616c616e636560601b60448201526064016102cd565b6001600160a01b03841660009081526002602090815260408083203384529091529020548211156104b05760405162461bcd60e51b8152602060048201526016602482015275496e73756666696369656e7420616c6c6f77616e636560501b60448201526064016102cd565b6001600160a01b038416600090815260016020526040812080548492906104d8908490610996565b90915550506001600160a01b038316600090815260016020526040812080548492906105059084906109a9565b90915550506001600160a01b03841660009081526002602090815260408083203384529091528120805484929061053d908490610996565b92505081905550826001600160a01b0316846001600160a01b03167fddf252ad1be2c89b69c2b068fc378daa952ba7f163c4a11628f55a4df523b3ef8460405161058991815260200190565b60405180910390a35060019392505050565b60006001600160a01b0383166105ee5760405162461bcd60e51b81526020600482015260186024820152775472616e7366657220746f207a65726f206164647265737360401b60448201526064016102cd565b336000908152600160205260409020548211156106445760405162461bcd60e51b8152602060048201526014602482015273496e73756666696369656e742062616c616e636560601b60448201526064016102cd565b3360009081526001602052604081208054849290610663908490610996565b90915550506001600160a01b038316600090815260016020526040812080548492906106909084906109a9565b90915550506040518281526001600160a01b0384169033907fddf252ad1be2c89b69c2b068fc378daa952ba7f163c4a11628f55a4df523b3ef9060200161032a565b6001600160a01b0381166000908152600360205260408120548082036106fb5750600092915050565b6000610709610e10836109a9565b905080421061071c575060009392505050565b6107264282610996565b949350505050565b3360009081526003602052604090205461074b90610e10906109a9565b4210156107935760405162461bcd60e51b815260206004820152601660248201527546617563657420636f6f6c646f776e2061637469766560501b60448201526064016102cd565b336000908152600360209081526040808320429055600190915281208054633b9aca0092906107c39084906109a9565b92505081905550633b9aca006000808282546107df91906109a9565b9091555050604051633b9aca00815233906000907fddf252ad1be2c89b69c2b068fc378daa952ba7f163c4a11628f55a4df523b3ef9060200160405180910390a3604051633b9aca00815233907f5d4f415c63cd8a5874d9d291cdd64cec37e5dc236d90d659c958d109d78074b39060200160405180910390a2565b600060208083528351808285015260005b818110156108885785810183015185820160400152820161086c565b506000604082860101526040601f19601f8301168501019250505092915050565b80356001600160a01b03811681146108c057600080fd5b919050565b600080604083850312156108d857600080fd5b6108e1836108a9565b946020939093013593505050565b60008060006060848603121561090457600080fd5b61090d846108a9565b925061091b602085016108a9565b9150604084013590509250925092565b60006020828403121561093d57600080fd5b610946826108a9565b9392505050565b6000806040838503121561096057600080fd5b610969836108a9565b9150610977602084016108a9565b90509250929050565b634e487b7160e01b600052601160045260246000fd5b8181038181111561033657610336610980565b808201808211156103365761033661098056fea26469706673582212209fdfd245bd77dcd7f2b7c3f98d2047a3d15616ad78ae64a47c326cfaaea043cf64736f6c63430008140033",
  "linkReferences": {},
  "deployedLinkReferences": {}
}