{
  "_format": "hh-sol-artifact-1",
  "contractName": "PredictionMarketVault",
  "sourceName": "contracts/PredictionMarketVault.sol",
  "abi": [
    {
      "inputs": [
        {
          "internalType": "address[]",
          "name": "_tokens",
          "type": "address[]"
        }
      ],
      "stateMutability": "nonpayable",
      "type": "constructor"
    },
    {
      "anonymous": false,
      "inputs": [
        {
          "indexed": true,
          "internalType": "address",
          "name": "user",
          "type": "address"
        },
        {
          "indexed": true,
          "internalType": "bytes32",
          "name": "marketId",
          "type": "bytes32"
        },
        {
          "indexed": false,
          "internalType": "uint8",
          "name": "outcome",
          "type": "uint8"
        },
        {
          "indexed": false,
          "internalType": "uint256",
          "name": "collateral",
          "type": "uint256"
        },
        {
          "indexed": false,
          "internalType": "uint256",
          "name": "shares",
          "type": "uint256"
        },
        {
          "indexed": false,
          "internalType": "uint256",
          "name": "nonce",
          "type": "uint256"
        }
      ],
      "name": "BetPlaced",
      "type": "event"
    },
    {
      "anonymous": false,
      "inputs": [
        {
          "indexed": true,
          "internalType": "address",
          "name": "user",
          "type": "address"
        },
        {
          "indexed": true,
          "internalType": "address",
          "name": "token",
          "type": "address"
        },
        {
          "indexed": false,
          "internalType": "uint256",
          "name": "amount",
          "type": "uint256"
        },
        {
          "indexed": false,
          "internalType": "uint256",
          "name": "newBalance",
          "type": "uint256"
        }
      ],
      "name": "Deposited",
      "type": "event"
    },
    {
      "anonymous": false,
      "inputs": [
        {
          "indexed": true,
          "internalType": "bytes32",
          "name": "marketId",
          "type": "bytes32"
        },
        {
          "indexed": false,
          "internalType": "uint8",
          "name": "outcome",
          "type": "uint8"
        }
      ],
      "name": "MarketResolved",
      "type": "event"
    },
    {
      "anonymous": false,
      "inputs": [
        {
          "indexed": true,
          "internalType": "address",
          "name": "previousOwner",
          "type": "address"
        },
        {
          "indexed": true,
          "internalType": "address",
          "name": "newOwner",
          "type": "address"
        }
      ],
      "name": "OwnershipTransferred",
      "type": "event"
    },
    {
      "anonymous": false,
      "inputs": [
        {
          "indexed": true,
          "internalType": "address",
          "name": "by",
          "type": "address"
        }
      ],
      "name": "Paused",
      "type": "event"
    },
    {
      "anonymous": false,
      "inputs": [
        {
          "indexed": true,
          "internalType": "address",
          "name": "user",
          "type": "address"
        },
        {
          "indexed": true,
          "internalType": "bytes32",
          "name": "marketId",
          "type": "bytes32"
        },
        {
          "indexed": false,
          "internalType": "uint8",
          "name": "outcome",
          "type": "uint8"
        },
        {
          "indexed": false,
          "internalType": "uint256",
          "name": "shares",
          "type": "uint256"
        },
        {
          "indexed": false,
          "internalType": "uint256",
          "name": "payout",
          "type": "uint256"
        },
        {
          "indexed": false,
          "internalType": "uint256",
          "name": "nonce",
          "type": "uint256"
        }
      ],
      "name": "PositionSold",
      "type": "event"
    },
    {
      "anonymous": false,
      "inputs": [
        {
          "indexed": true,
          "internalType": "address",
          "name": "previousSigner",
          "type": "address"
        },
        {
          "indexed": true,
          "internalType": "address",
          "name": "newSigner",
          "type": "address"
        }
      ],
      "name": "QuoteSignerUpdated",
      "type": "event"
    },
    {
      "anonymous": false,
      "inputs": [
        {
          "indexed": true,
          "internalType": "address",
          "name": "token",
          "type": "address"
        }
      ],
      "name": "TokenAdded",
      "type": "event"
    },
    {
      "anonymous": false,
      "inputs": [
        {
          "indexed": true,
          "internalType": "address",
          "name": "token",
          "type": "address"
        }
      ],
      "name": "TokenRemoved",
      "type": "event"
    },
    {
      "anonymous": false,
      "inputs": [
        {
          "indexed": true,
          "internalType": "address",
          "name": "by",
          "type": "address"
        }
      ],
      "name": "Unpaused",
      "type": "event"
    },
    {
      "anonymous": false,
      "inputs": [
        {
          "indexed": true,
          "internalType": "address",
          "name": "user",
          "type": "address"
        },
        {
          "indexed": true,
          "internalType": "bytes32",
          "name": "marketId",
          "type": "bytes32"
        },
        {
          "indexed": false,
          "internalType": "uint8",
          "name": "outcome",
          "type": "uint8"
        },
        {
          "indexed": false,
          "internalType": "uint256",
          "name": "shares",
          "type": "uint256"
        },
        {
          "indexed": false,
          "internalType": "uint256",
          "name": "payout",
          "type": "uint256"
        }
      ],
      "name": "WinningsClaimed",
      "type": "event"
    },
    {
      "anonymous": false,
      "inputs": [
        {
          "indexed": true,
          "internalType": "address",
          "name": "user",
          "type": "address"
        },
        {
          "indexed": true,
          "internalType": "address",
          "name": "token",
          "type": "address"
        },
        {
          "indexed": false,
          "internalType": "uint256",
          "name": "amount",
          "type": "uint256"
        },
        {
          "indexed": false,
          "internalType": "uint256",
          "name": "newBalance",
          "type": "uint256"
        }
      ],
      "name": "Withdrawn",
      "type": "event"
    },
    {
      "inputs": [
        {
          "internalType": "address",
          "name": "token",
          "type": "address"
        }
      ],
      "name": "addToken",
      "outputs": [],
      "stateMutability": "nonpayable",
      "type": "function"
    },
    {
      "inputs": [
        {
          "internalType": "address",
          "name": "",
          "type": "address"
        },
        {
          "internalType": "address",
          "name": "",
          "type": "address"
        }
      ],
      "name": "balances",
      "outputs": [
        {
          "internalType": "uint256",
          "name": "",
          "type": "uint256"
        }
      ],
      "stateMutability": "view",
      "type": "function"
    },
    {
      "inputs": [
        {
          "internalType": "bytes32",
          "name": "marketId",
          "type": "bytes32"
        },
        {
          "internalType": "address",
          "name": "token",
          "type": "address"
        }
      ],
      "name": "claimRefund",
      "outputs": [],
      "stateMutability": "nonpayable",
      "type": "function"
    },
    {
      "inputs": [
        {
          "internalType": "bytes32",
          "name": "marketId",
          "type": "bytes32"
        },
        {
          "internalType": "address",
          "name": "token",
          "type": "address"
        }
      ],
      "name": "claimWinnings",
      "outputs": [],
      "stateMutability": "nonpayable",
      "type": "function"
    },
    {
      "inputs": [
        {
          "internalType": "address",
          "name": "token",
          "type": "address"
        },
        {
          "internalType": "uint256",
          "name": "amount",
          "type": "uint256"
        }
      ],
      "name": "deposit",
      "outputs": [],
      "stateMutability": "nonpayable",
      "type": "function"
    },
    {
      "inputs": [
        {
          "internalType": "address",
          "name": "token",
          "type": "address"
        },
        {
          "internalType": "uint256",
          "name": "amount",
          "type": "uint256"
        }
      ],
      "name": "emergencyWithdraw",
      "outputs": [],
      "stateMutability": "nonpayable",
      "type": "function"
    },
    {
      "inputs": [
        {
          "internalType": "address",
          "name": "user",
          "type": "address"
        },
        {
          "internalType": "address",
          "name": "token",
          "type": "address"
        }
      ],
      "name": "getBalance",
      "outputs": [
        {
          "internalType": "uint256",
          "name": "",
          "type": "uint256"
        }
      ],
      "stateMutability": "view",
      "type": "function"
    },
    {
      "inputs": [
        {
          "internalType": "bytes32",
          "name": "marketId",
          "type": "bytes32"
        }
      ],
      "name": "getMarketOutcome",
      "outputs": [
        {
          "internalType": "uint8",
          "name": "",
          "type": "uint8"
        }
      ],
      "stateMutability": "view",
      "type": "function"
    },
    {
      "inputs": [
        {
          "internalType": "address",
          "name": "user",
          "type": "address"
        }
      ],
      "name": "getNonce",
      "outputs": [
        {
          "internalType": "uint256",
          "name": "",
          "type": "uint256"
        }
      ],
      "stateMutability": "view",
      "type": "function"
    },
    {
      "inputs": [
        {
          "internalType": "address",
          "name": "user",
          "type": "address"
        },
        {
          "internalType": "bytes32",
          "name": "marketId",
          "type": "bytes32"
        },
        {
          "internalType": "uint8",
          "name": "outcome",
          "type": "uint8"
        }
      ],
      "name": "getPosition",
      "outputs": [
        {
          "internalType": "uint256",
          "name": "",
          "type": "uint256"
        }
      ],
      "stateMutability": "view",
      "type": "function"
    },
    {
      "inputs": [
        {
          "internalType": "bytes32",
          "name": "",
          "type": "bytes32"
        }
      ],
      "name": "marketOutcomes",
      "outputs": [
        {
          "internalType": "uint8",
          "name": "",
          "type": "uint8"
        }
      ],
      "stateMutability": "view",
      "type": "function"
    },
    {
      "inputs": [
        {
          "internalType": "bytes32",
          "name": "",
          "type": "bytes32"
        },
        {
          "internalType": "uint8",
          "name": "",
          "type": "uint8"
        }
      ],
      "name": "marketPools",
      "outputs": [
        {
          "internalType": "uint256",
          "name": "",
          "type": "uint256"
        }
      ],
      "stateMutability": "view",
      "type": "function"
    },
    {
      "inputs": [
        {
          "internalType": "address",
          "name": "",
          "type": "address"
        }
      ],
      "name": "nonces",
      "outputs": [
        {
          "internalType": "uint256",
          "name": "",
          "type": "uint256"
        }
      ],
      "stateMutability": "view",
      "type": "function"
    },
    {
      "inputs": [],
      "name": "owner",
      "outputs": [
        {
          "internalType": "address",
          "name": "",
          "type": "address"
        }
      ],
      "stateMutability": "view",
      "type": "function"
    },
    {
      "inputs": [],
      "name": "pause",
      "outputs": [],
      "stateMutability": "nonpayable",
      "type": "function"
    },
    {
      "inputs": [],
      "name": "paused",
      "outputs": [
        {
          "internalType": "bool",
          "name": "",
          "type": "bool"
        }
      ],
      "stateMutability": "view",
      "type": "function"
    },
    {
      "inputs": [
        {
          "internalType": "bytes32",
          "name": "marketId",
          "type": "bytes32"
        },
        {
          "internalType": "uint8",
          "name": "outcome",
          "type": "uint8"
        },
        {
          "internalType": "uint256",
          "name": "collateral",
          "type": "uint256"
        },
        {
          "internalType": "uint256",
          "name": "shares",
          "type": "uint256"
        },
        {
          "internalType": "address",
          "name": "token",
          "type": "address"
        },
        {
          "internalType": "uint256",
          "name": "deadline",
          "type": "uint256"
        },
        {
          "internalType": "bytes",
          "name": "quoteSignature",
          "type": "bytes"
        }
      ],
      "name": "placeBet",
      "outputs": [],
      "stateMutability": "nonpayable",
      "type": "function"
    },
    {
      "inputs": [
        {
          "internalType": "address",
          "name": "",
          "type": "address"
        },
        {
          "internalType": "bytes32",
          "name": "",
          "type": "bytes32"
        },
        {
          "internalType": "uint8",
          "name": "",
          "type": "uint8"
        }
      ],
      "name": "positions",
      "outputs": [
        {
          "internalType": "uint256",
          "name": "",
          "type": "uint256"
        }
      ],
      "stateMutability": "view",
      "type": "function"
    },
    {
      "inputs": [],
      "name": "quoteSigner",
      "outputs": [
        {
          "internalType": "address",
          "name": "",
          "type": "address"
        }
      ],
      "stateMutability": "view",
      "type": "function"
    },
    {
      "inputs": [
        {
          "internalType": "address",
          "name": "token",
          "type": "address"
        }
      ],
      "name": "removeToken",
      "outputs": [],
      "stateMutability": "nonpayable",
      "type": "function"
    },
    {
      "inputs": [
        {
          "internalType": "bytes32",
          "name": "marketId",
          "type": "bytes32"
        },
        {
          "internalType": "uint8",
          "name": "outcome",
          "type": "uint8"
        }
      ],
      "name": "resolveMarket",
      "outputs": [],
      "stateMutability": "nonpayable",
      "type": "function"
    },
    {
      "inputs": [
        {
          "internalType": "bytes32",
          "name": "marketId",
          "type": "bytes32"
        },
        {
          "internalType": "uint8",
          "name": "outcome",
          "type": "uint8"
        },
        {
          "internalType": "uint256",
          "name": "shares",
          "type": "uint256"
        },
        {
          "internalType": "uint256",
          "name": "payout",
          "type": "uint256"
        },
        {
          "internalType": "address",
          "name": "token",
          "type": "address"
        },
        {
          "internalType": "uint256",
          "name": "deadline",
          "type": "uint256"
        },
        {
          "internalType": "bytes",
          "name": "quoteSignature",
          "type": "bytes"
        }
      ],
      "name": "sellPosition",
      "outputs": [],
      "stateMutability": "nonpayable",
      "type": "function"
    },
    {
      "inputs": [
        {
          "internalType": "address",
          "name": "newSigner",
          "type": "address"
        }
      ],
      "name": "setQuoteSigner",
      "outputs": [],
      "stateMutability": "nonpayable",
      "type": "function"
    },
    {
      "inputs": [
        {
          "internalType": "address",
          "name": "",
          "type": "address"
        }
      ],
      "name": "supportedTokens",
      "outputs": [
        {
          "internalType": "bool",
          "name": "",
          "type": "bool"
        }
      ],
      "stateMutability": "view",
      "type": "function"
    },
    {
      "inputs": [
        {
          "internalType": "address",
          "name": "newOwner",
          "type": "address"
        }
      ],
      "name": "transferOwnership",
      "outputs": [],
      "stateMutability": "nonpayable",
      "type": "function"
    },
    {
      "inputs": [],
      "name": "unpause",
      "outputs": [],
      "stateMutability": "nonpayable",
      "type": "function"
    },
    {
      "inputs": [
        {
          "internalType": "string",
          "name": "uuid",
          "type": "string"
        }
      ],
      "name": "uuidToBytes32",
      "outputs": [
        {
          "internalType": "bytes32",
          "name": "",
          "type": "bytes32"
        }
      ],
      "stateMutability": "pure",
      "type": "function"
    },
    {
      "inputs": [
        {
          "internalType": "address",
          "name": "token",
          "type": "address"
        },
        {
          "internalType": "uint256",
          "name": "amount",
          "type": "uint256"
        }
      ],
      "name": "withdraw",
      "outputs": [],
      "stateMutability": "nonpayable",
      "type": "function"
    }
  ],
  "bytecode": "0x60806040523480156200001157600080fd5b506040516200264e3803806200264e83398101604081905262000034916200015a565b60008054336001600160a01b031991821681178355600180549092161790555b81518110156200011f576001600260008484815181106200007957620000796200022c565b60200260200101516001600160a01b03166001600160a01b0316815260200190815260200160002060006101000a81548160ff021916908315150217905550818181518110620000cd57620000cd6200022c565b60200260200101516001600160a01b03167f784c8f4dbf0ffedd6e72c76501c545a70f8b203b30a26ce542bf92ba87c248a460405160405180910390a280620001168162000242565b91505062000054565b50506200026a565b634e487b7160e01b600052604160045260246000fd5b80516001600160a01b03811681146200015557600080fd5b919050565b600060208083850312156200016e57600080fd5b82516001600160401b03808211156200018657600080fd5b818501915085601f8301126200019b57600080fd5b815181811115620001b057620001b062000127565b8060051b604051601f19603f83011681018181108582111715620001d857620001d862000127565b604052918252848201925083810185019188831115620001f757600080fd5b938501935b82851015620002205762000210856200013d565b84529385019392850192620001fc565b98975050505050505050565b634e487b7160e01b600052603260045260246000fd5b6000600182016200026357634e487b7160e01b600052601160045260246000fd5b5060010190565b6123d4806200027a6000396000f3fe608060405234801561001057600080fd5b50600436106101c45760003560e01c80638456cb59116100f9578063d4fac45d11610097578063f2fde38b11610071578063f2fde38b1461046c578063f3fef3a31461047f578063f413bdb314610492578063f59fdad1146104a557600080fd5b8063d4fac45d14610415578063dd8f382614610428578063e09313b81461045957600080fd5b806395ccea67116100d357806395ccea67146103b1578063c23f001f146103c4578063c6b49688146103ef578063d48bfca71461040257600080fd5b80638456cb59146103535780638da5cb5b1461035b57806392c130071461038657600080fd5b806356ce180a116101665780635fa7b584116101405780635fa7b584146102da57806362aa0a36146102ed57806368c4ac26146103105780637ecebe001461033357600080fd5b806356ce180a146102905780635c975abb146102a35780635e382837146102c757600080fd5b80633f4ba83a116101a25780633f4ba83a1461024d578063432d830d1461025757806347e7ef241461026a5780634fe154371461027d57600080fd5b80631e449cf9146101c9578063282b77d5146101ef5780632d0335ab14610224575b600080fd5b6101dc6101d7366004611f5a565b6104e9565b6040519081526020015b60405180910390f35b6102126101fd36600461200b565b60009081526004602052604090205460ff1690565b60405160ff90911681526020016101e6565b6101dc610232366004612040565b6001600160a01b031660009081526006602052604090205490565b610255610519565b005b610255610265366004612062565b610583565b61025561027836600461208e565b610761565b61025561028b3660046120c9565b6108ab565b61025561029e366004612040565b610d3c565b6000546102b790600160a01b900460ff1681565b60405190151581526020016101e6565b6102556102d5366004612183565b610dfd565b6102556102e8366004612040565b610f05565b6102126102fb36600461200b565b60046020526000908152604090205460ff1681565b6102b761031e366004612040565b60026020526000908152604090205460ff1681565b6101dc610341366004612040565b60066020526000908152604090205481565b610255610fd0565b60005461036e906001600160a01b031681565b6040516001600160a01b0390911681526020016101e6565b6101dc610394366004612183565b600760209081526000928352604080842090915290825290205481565b6102556103bf36600461208e565b611037565b6101dc6103d23660046121a6565b600360209081526000928352604080842090915290825290205481565b6102556103fd366004612062565b6110c7565b610255610410366004612040565b6112a9565b6101dc6104233660046121a6565b61137c565b6101dc6104363660046121d0565b600560209081526000938452604080852082529284528284209052825290205481565b6102556104673660046120c9565b6113a9565b61025561047a366004612040565b6117e0565b61025561048d36600461208e565b61189f565b60015461036e906001600160a01b031681565b6101dc6104b33660046121d0565b6001600160a01b0383166000908152600560209081526040808320858452825280832060ff851684529091529020549392505050565b6000816040516020016104fc9190612230565b604051602081830303815290604052805190602001209050919050565b6000546001600160a01b0316331461054c5760405162461bcd60e51b81526004016105439061224c565b60405180910390fd5b6000805460ff60a01b1916815560405133917f5db9ee0a495bf2e6ff9c91a7834c1ba4fdd244a5e8aa4e537bd38aeae4b073aa91a2565b600054600160a01b900460ff16156105ad5760405162461bcd60e51b81526004016105439061226f565b6001600160a01b038116600090815260026020526040902054819060ff166105e75760405162461bcd60e51b815260040161054390612298565b60008381526004602052604090205460ff16600181148061060b57508060ff166002145b61064d5760405162461bcd60e51b815260206004820152601360248201527213585c9ad95d081b9bdd081c995cdbdb1d9959606a1b6044820152606401610543565b336000908152600560209081526040808320878452825280832060ff85168452909152902054806106b65760405162461bcd60e51b81526020600482015260136024820152722737903bb4b73734b733903837b9b4ba34b7b760691b6044820152606401610543565b336000818152600560209081526040808320898452825280832060ff871684528252808320839055928252600381528282206001600160a01b038816835290529081208054839283929161070b9084906122d9565b90915550506040805160ff8516815260208101849052908101829052869033907fdefbf9b2db43f0c3ba9c426ac9277bdde6fd0b459deb37c31fc51162886f1026906060015b60405180910390a3505050505050565b600054600160a01b900460ff161561078b5760405162461bcd60e51b81526004016105439061226f565b6001600160a01b038216600090815260026020526040902054829060ff166107c55760405162461bcd60e51b815260040161054390612298565b600082116108035760405162461bcd60e51b815260206004820152600b60248201526a16995c9bc8185b5bdd5b9d60aa1b6044820152606401610543565b61080f83333085611a4a565b3360009081526003602090815260408083206001600160a01b0387168452909152812080548492906108429084906122d9565b90915550503360008181526003602090815260408083206001600160a01b03881680855290835292819020548151878152928301529192917ff5681f9d0db1b911ac18ee83d515a1cf1051853a9eae418316a2fdf7dea427c591015b60405180910390a3505050565b600054600160a01b900460ff16156108d55760405162461bcd60e51b81526004016105439061226f565b6001600160a01b038416600090815260026020526040902054849060ff1661090f5760405162461bcd60e51b815260040161054390612298565b834211156109555760405162461bcd60e51b8152602060048201526013602482015272151c985b9cd858dd1a5bdb88195e1c1a5c9959606a1b6044820152606401610543565b8760ff166001148061096a57508760ff166002145b6109865760405162461bcd60e51b8152600401610543906122ec565b600087116109c85760405162461bcd60e51b815260206004820152600f60248201526e16995c9bc818dbdb1b185d195c985b608a1b6044820152606401610543565b60008611610a065760405162461bcd60e51b815260206004820152600b60248201526a5a65726f2073686172657360a81b6044820152606401610543565b60008981526004602052604090205460ff1615610a5f5760405162461bcd60e51b815260206004820152601760248201527613585c9ad95d08185b1c9958591e481c995cdbdb1d9959604a1b6044820152606401610543565b3360009081526003602090815260408083206001600160a01b0389168452909152902054871115610ac95760405162461bcd60e51b8152602060048201526014602482015273496e73756666696369656e742062616c616e636560601b6044820152606401610543565b600060066000336001600160a01b03166001600160a01b0316815260200190815260200160002054905060007feb37e5f5f8cc6931ceb54a4632e2b940cff8a01458f097b2f279e1979860fb30338c8c8a8d8d888d604051602001610b3699989796959493929190612315565b6040516020818303038152906040528051906020012090506000610b5982611b60565b90506000610b68828888611c66565b6001549091506001600160a01b03808316911614610bb85760405162461bcd60e51b815260206004820152600d60248201526c496e76616c69642071756f746560981b6044820152606401610543565b3360009081526003602090815260408083206001600160a01b038d168452909152812080548d9290610beb908490612369565b925050819055508960056000336001600160a01b03166001600160a01b0316815260200190815260200160002060008f815260200190815260200160002060008e60ff1660ff1681526020019081526020016000206000828254610c4f91906122d9565b9250508190555089600760008f815260200190815260200160002060008e60ff1660ff1681526020019081526020016000206000828254610c9091906122d9565b90915550610ca190508460016122d9565b60066000336001600160a01b03166001600160a01b03168152602001908152602001600020819055508c336001600160a01b03167f45be1680d89e9242699187415bc04a2f2304921d142b18f662793672fdfad02e8e8e8e89604051610d25949392919060ff94909416845260208401929092526040830152606082015260800190565b60405180910390a350505050505050505050505050565b6000546001600160a01b03163314610d665760405162461bcd60e51b81526004016105439061224c565b6001600160a01b038116610dab5760405162461bcd60e51b815260206004820152600c60248201526b5a65726f206164647265737360a01b6044820152606401610543565b600180546001600160a01b038381166001600160a01b0319831681179093556040519116919082907f0b6b513ed661cb195db5434de123da765c2d8ef310958c00646bb5a872cb1afa90600090a35050565b6000546001600160a01b03163314610e275760405162461bcd60e51b81526004016105439061224c565b60018160ff1610158015610e3f575060038160ff1611155b610e5b5760405162461bcd60e51b8152600401610543906122ec565b60008281526004602052604090205460ff1615610ead5760405162461bcd60e51b815260206004820152601060248201526f105b1c9958591e481c995cdbdb1d995960821b6044820152606401610543565b600082815260046020908152604091829020805460ff191660ff8516908117909155915191825283917ff34984473148051bc1bdf1be6ecc462d7b228d591058a8a27977b84770b738b9910160405180910390a25050565b6000546001600160a01b03163314610f2f5760405162461bcd60e51b81526004016105439061224c565b6001600160a01b03811660009081526002602052604090205460ff16610f875760405162461bcd60e51b815260206004820152600d60248201526c139bdd081cdd5c1c1bdc9d1959609a1b6044820152606401610543565b6001600160a01b038116600081815260026020526040808220805460ff19169055517f4c910b69fe65a61f7531b9c5042b2329ca7179c77290aa7e2eb3afa3c8511fd39190a250565b6000546001600160a01b03163314610ffa5760405162461bcd60e51b81526004016105439061224c565b6000805460ff60a01b1916600160a01b17815560405133917f62e78cea01bee320cd4e420270b5ea74000d11b0c9f74754ebdbfc544b05a25891a2565b6000546001600160a01b031633146110615760405162461bcd60e51b81526004016105439061224c565b600054600160a01b900460ff166110ab5760405162461bcd60e51b815260206004820152600e60248201526d135d5cdd081899481c185d5cd95960921b6044820152606401610543565b6000546110c39083906001600160a01b031683611e37565b5050565b600054600160a01b900460ff16156110f15760405162461bcd60e51b81526004016105439061226f565b6001600160a01b038116600090815260026020526040902054819060ff1661112b5760405162461bcd60e51b815260040161054390612298565b60008381526004602052604090205460ff166003146111835760405162461bcd60e51b815260206004820152601460248201527313585c9ad95d081b9bdd0818d85b98d95b1b195960621b6044820152606401610543565b33600090815260056020908152604080832086845282528083206001845290915280822054600283529082205490916111bc82846122d9565b9050600081116112065760405162461bcd60e51b8152602060048201526015602482015274139bc81c1bdcda5d1a5bdb881d1bc81c99599d5b99605a1b6044820152606401610543565b3360008181526005602090815260408083208a8452825280832060018452825280832083905560028352808320839055928252600381528282206001600160a01b0389168352905290812080548392906112619084906122d9565b9091555050604080516003815260208101839052908101829052869033907fdefbf9b2db43f0c3ba9c426ac9277bdde6fd0b459deb37c31fc51162886f102690606001610751565b6000546001600160a01b031633146112d35760405162461bcd60e51b81526004016105439061224c565b6001600160a01b03811660009081526002602052604090205460ff16156113305760405162461bcd60e51b8152602060048201526011602482015270105b1c9958591e481cdd5c1c1bdc9d1959607a1b6044820152606401610543565b6001600160a01b038116600081815260026020526040808220805460ff19166001179055517f784c8f4dbf0ffedd6e72c76501c545a70f8b203b30a26ce542bf92ba87c248a49190a250565b6001600160a01b038083166000908152600360209081526040808320938516835292905220545b92915050565b600054600160a01b900460ff16156113d35760405162461bcd60e51b81526004016105439061226f565b6001600160a01b038416600090815260026020526040902054849060ff1661140d5760405162461bcd60e51b815260040161054390612298565b834211156114535760405162461bcd60e51b8152602060048201526013602482015272151c985b9cd858dd1a5bdb88195e1c1a5c9959606a1b6044820152606401610543565b8760ff166001148061146857508760ff166002145b6114845760405162461bcd60e51b8152600401610543906122ec565b600087116114c25760405162461bcd60e51b815260206004820152600b60248201526a5a65726f2073686172657360a81b6044820152606401610543565b60008981526004602052604090205460ff161561151b5760405162461bcd60e51b815260206004820152601760248201527613585c9ad95d08185b1c9958591e481c995cdbdb1d9959604a1b6044820152606401610543565b3360009081526005602090815260408083208c8452825280832060ff8c1684529091529020548711156115865760405162461bcd60e51b8152602060048201526013602482015272496e73756666696369656e742073686172657360681b6044820152606401610543565b600060066000336001600160a01b03166001600160a01b0316815260200190815260200160002054905060007ff9cdce6a93facebaeca1acd17b173d6d97d2226b28ebbcea9e8d4826329a04bd338c8c8a8d8d888d6040516020016115f399989796959493929190612315565b604051602081830303815290604052805190602001209050600061161682611b60565b90506000611625828888611c66565b6001549091506001600160a01b038083169116146116755760405162461bcd60e51b815260206004820152600d60248201526c496e76616c69642071756f746560981b6044820152606401610543565b8a60056000336001600160a01b03166001600160a01b0316815260200190815260200160002060008f815260200190815260200160002060008e60ff1660ff16815260200190815260200160002060008282546116d29190612369565b925050819055508a600760008f815260200190815260200160002060008e60ff1660ff16815260200190815260200160002060008282546117139190612369565b90915550503360009081526003602090815260408083206001600160a01b038d168452909152812080548c929061174b9084906122d9565b9091555061175c90508460016122d9565b60066000336001600160a01b03166001600160a01b03168152602001908152602001600020819055508c336001600160a01b03167f54050c0ef55fee541f4430f83e3ad3bf11c627b994c8fa24b2feddf4cd0ccffc8e8e8e89604051610d25949392919060ff94909416845260208401929092526040830152606082015260800190565b6000546001600160a01b0316331461180a5760405162461bcd60e51b81526004016105439061224c565b6001600160a01b03811661184f5760405162461bcd60e51b815260206004820152600c60248201526b5a65726f206164647265737360a01b6044820152606401610543565b600080546001600160a01b038381166001600160a01b0319831681178455604051919092169283917f8be0079c531659141344cd1fd0a4f28419497f9722a3daafe3b4186f6b6457e09190a35050565b600054600160a01b900460ff16156118c95760405162461bcd60e51b81526004016105439061226f565b6001600160a01b038216600090815260026020526040902054829060ff166119035760405162461bcd60e51b815260040161054390612298565b600082116119415760405162461bcd60e51b815260206004820152600b60248201526a16995c9bc8185b5bdd5b9d60aa1b6044820152606401610543565b3360009081526003602090815260408083206001600160a01b03871684529091529020548211156119ab5760405162461bcd60e51b8152602060048201526014602482015273496e73756666696369656e742062616c616e636560601b6044820152606401610543565b3360009081526003602090815260408083206001600160a01b0387168452909152812080548492906119de908490612369565b909155506119ef9050833384611e37565b3360008181526003602090815260408083206001600160a01b03881680855290835292819020548151878152928301529192917f91fb9d98b786c57d74c099ccd2beca1739e9f6a81fb49001ca465c4b7591bbe2910161089e565b604080516001600160a01b0385811660248301528481166044830152606480830185905283518084039091018152608490920183526020820180516001600160e01b03166323b872dd60e01b1790529151600092839290881691611aae9190612230565b6000604051808303816000865af19150503d8060008114611aeb576040519150601f19603f3d011682016040523d82523d6000602084013e611af0565b606091505b5091509150818015611b1a575080511580611b1a575080806020019051810190611b1a919061237c565b611b585760405162461bcd60e51b815260206004820152600f60248201526e151c985b9cd9995c8819985a5b1959608a1b6044820152606401610543565b505050505050565b6000611c416040805180820182526015815274141c99591a58dd1a5bdb93585c9ad95d15985d5b1d605a1b6020918201528151808301835260018152603160f81b9082015281517f8b73c3c69bb8fe3d512ecc4cf759cc79239f7b179b0ffacaa9a75d522b39400f818301527fec2852627a0d0e260efdccdfe05e1293d0d087145c3712e3d811d55dea44b557818401527fc89efdaa54c0f20c7adf612882df0950f5a951637e0307cdcb4c672f298b8bc660608201524660808201523060a0808301919091528351808303909101815260c0909101909252815191012090565b60405161190160f01b60208201526022810191909152604281018390526062016104fc565b600060418214611cb85760405162461bcd60e51b815260206004820152601860248201527f496e76616c6964207369676e6174757265206c656e67746800000000000000006044820152606401610543565b82356020840135604085013560001a601b811480611cd957508060ff16601c145b611d1b5760405162461bcd60e51b815260206004820152601360248201527224b73b30b634b21039b4b3b730ba3ab932903b60691b6044820152606401610543565b7f7fffffffffffffffffffffffffffffff5d576e7357a4501ddfe92f46681b20a0821115611d815760405162461bcd60e51b8152602060048201526013602482015272496e76616c6964207369676e6174757265207360681b6044820152606401610543565b604080516000808252602082018084528a905260ff841692820192909252606081018590526080810184905260019060a0016020604051602081039080840390855afa158015611dd5573d6000803e3d6000fd5b5050604051601f1901519150506001600160a01b038116611e2c5760405162461bcd60e51b8152602060048201526011602482015270496e76616c6964207369676e617475726560781b6044820152606401610543565b979650505050505050565b604080516001600160a01b038481166024830152604480830185905283518084039091018152606490920183526020820180516001600160e01b031663a9059cbb60e01b1790529151600092839290871691611e939190612230565b6000604051808303816000865af19150503d8060008114611ed0576040519150601f19603f3d011682016040523d82523d6000602084013e611ed5565b606091505b5091509150818015611eff575080511580611eff575080806020019051810190611eff919061237c565b611f3d5760405162461bcd60e51b815260206004820152600f60248201526e151c985b9cd9995c8819985a5b1959608a1b6044820152606401610543565b5050505050565b634e487b7160e01b600052604160045260246000fd5b600060208284031215611f6c57600080fd5b813567ffffffffffffffff80821115611f8457600080fd5b818401915084601f830112611f9857600080fd5b813581811115611faa57611faa611f44565b604051601f8201601f19908116603f01168101908382118183101715611fd257611fd2611f44565b81604052828152876020848701011115611feb57600080fd5b826020860160208301376000928101602001929092525095945050505050565b60006020828403121561201d57600080fd5b5035919050565b80356001600160a01b038116811461203b57600080fd5b919050565b60006020828403121561205257600080fd5b61205b82612024565b9392505050565b6000806040838503121561207557600080fd5b8235915061208560208401612024565b90509250929050565b600080604083850312156120a157600080fd5b6120aa83612024565b946020939093013593505050565b803560ff8116811461203b57600080fd5b60008060008060008060008060e0898b0312156120e557600080fd5b883597506120f560208a016120b8565b9650604089013595506060890135945061211160808a01612024565b935060a0890135925060c089013567ffffffffffffffff8082111561213557600080fd5b818b0191508b601f83011261214957600080fd5b81358181111561215857600080fd5b8c602082850101111561216a57600080fd5b6020830194508093505050509295985092959890939650565b6000806040838503121561219657600080fd5b82359150612085602084016120b8565b600080604083850312156121b957600080fd5b6121c283612024565b915061208560208401612024565b6000806000606084860312156121e557600080fd5b6121ee84612024565b925060208401359150612203604085016120b8565b90509250925092565b60005b8381101561222757818101518382015260200161220f565b50506000910152565b6000825161224281846020870161220c565b9190910192915050565b6020808252600990820152682737ba1037bbb732b960b91b604082015260600190565b6020808252600f908201526e10dbdb9d1c9858dd081c185d5cd959608a1b604082015260600190565b6020808252601190820152702ab739bab83837b93a32b2103a37b5b2b760791b604082015260600190565b634e487b7160e01b600052601160045260246000fd5b808201808211156113a3576113a36122c3565b6020808252600f908201526e496e76616c6964206f7574636f6d6560881b604082015260600190565b9889526001600160a01b0397881660208a0152604089019690965260ff94909416606088015291909416608086015260a085019390935260c084019290925260e08301919091526101008201526101200190565b818103818111156113a3576113a36122c3565b60006020828403121561238e57600080fd5b8151801515811461205b57600080fdfea264697066735822122060b04a1dd9979bbb8a8bbfc3cf0ae442c93fb0e4c789858b8a2992e6d808130f64736f6c63430008140033",
  "linkReferences": {},
  "deployedLinkReferences": {}
}